:020000040800F2
:1000000000C00020DD280008E1240008E5240008E5
:10001000E9240008ED240008F12400080000000095
:10002000000000000000000000000000917B0008BC
:10003000F524000800000000217C0008657C000811
:100040002529000825290008252900082529000858
:100050002529000825290008252900082529000848
:10006000252900082529000825290008F924000869
:10007000252900082529000825290008052500084C
:100080002529000825290008252900082529000818
:100090002529000825290008252900081125000820
:1000A00025290008252900082529000825290008F8
:1000B00025290008252900082529000825290008E8
:1000C00025290008252900082529000825290008D8
:1000D0001925000825250008312500083D250008C0
:1000E00025290008252900082529000825290008B8
:1000F00025290008252900082529000825290008A8
:100100002529000825290008252900082529000897
:10011000492500082529000825290008552500083B
:100120002529000825290008252900082529000877
:1001300000000000000000000000000000000000BF
:1001400000000000000000000000000000000000AF
:10015000000000000000000000000000000000009F
:10016000000000000000000000000000000000008F
:10017000000000000000000000000000000000007F
:10018000000000000000000000000000000000006F
:10019000000000000000000000000000000000005F
:1001A000000000000000000000000000000000004F
:1001B000000000000000000000000000000000003F
:1001C000000000000000000000000000000000002F
:1001D000000000000000000000000000000000001F
:0401E0005FF8E0F1F3
:1001F000034613F8012B002AFBD1181A0138704767
:1002000081F0004102E000BF83F0004330B54FEAC7
:1002100041044FEA430594EA050F08BF90EA020F34
:100220001FBF54EA000C55EA020C7FEA645C7FEAC7
:10023000655C00F0E2804FEA5454D4EB5555B8BFEA
:100240006D420CDD2C4480EA020281EA030382EA5B
:10025000000083EA010180EA020281EA0303362DED
:1002600088BF30BD11F0004F4FEA01314FF4801CC0
:100270004CEA113102D0404261EB410113F0004FD2
:100280004FEA03334CEA133302D0524263EB430389
:1002900094EA050F00F0A780A4F10104D5F1200E27
:1002A0000DDB02FA0EFC22FA05F2801841F1000182
:1002B00003FA0EF2801843FA05F359410EE0A5F156
:1002C00020050EF1200E012A03FA0EFC28BF4CF087
:1002D000020C43FA05F3C01851EBE37101F000453D
:1002E00007D54FF0000EDCF1000C7EEB00006EEB4A
:1002F0000101B1F5801F1BD3B1F5001F0CD34908D4
:100300005FEA30004FEA3C0C04F101044FEA44522A
:1003100012F5800F80F09A80BCF1004F08BF5FEAB1
:10032000500C50F1000041EB045141EA050130BD91
:100330005FEA4C0C404141EB0101013C28BFB1F5A3
:10034000801FE9D291F0000F04BF01460020B1FAEE
:1003500081F308BF2033A3F10B03B3F120020CDAC1
:100360000C3208DD02F1140CC2F10C0201FA0CF09F
:1003700021FA02F10CE002F11402D8BFC2F1200C04
:1003800001FA02F120FA0CFCDCBF41EA0C019040BA
:10039000E41AA2BF01EB0451294330BD6FEA040403
:1003A0001F3C1CDA0C340EDC04F11404C4F12002EE
:1003B00020FA04F001FA02F340EA030021FA04F300
:1003C00045EA030130BDC4F10C04C4F1200220FA57
:1003D00002F001FA04F340EA0300294630BD21FA95
:1003E00004F0294630BD94F0000F83F4801306BF5B
:1003F00081F480110134013D4EE77FEA645C18BF4F
:100400007FEA655C29D094EA050F08BF90EA020FE5
:1004100005D054EA000C04BF1946104630BD91EADD
:10042000030F1EBF0021002030BD5FEA545C05D1E0
:100430004000494128BF41F0004130BD14F580041F
:100440003CBF01F5801130BD01F0004545F0FE4193
:1004500041F470014FF0000030BD7FEA645C1ABFC8
:10046000194610467FEA655C1CBF0B46024650EAFF
:10047000013406BF52EA033591EA030F41F400212B
:1004800030BD00BF90F0000F04BF0021704730B5B1
:100490004FF4806404F132044FF000054FF0000186
:1004A00050E700BF90F0000F04BF0021704730B547
:1004B0004FF4806404F1320410F0004548BF40421C
:1004C0004FF000013EE700BF42004FEAE2014FEA71
:1004D00031014FEA02701FBF12F07F4393F07F4F4C
:1004E00081F06051704732F07F4208BF704793F04F
:1004F0007F4F04BF41F40021704730B54FF4607462
:1005000001F0004521F000411CE700BF50EA010264
:1005100008BF704730B54FF000050AE050EA01020D
:1005200008BF704730B511F0004502D5404261EB7D
:1005300041014FF4806404F132045FEA915C3FF4BE
:10054000D8AE4FF003025FEADC0C18BF03325FEA5B
:10055000DC0C18BF033202EBDC02C2F1200300FA0C
:1005600003FC20FA02F001FA03FE40EA0E0021FA31
:1005700002F11444BDE600BF70B54FF0FF0C4CF41F
:10058000E06C1CEA11541DBF1CEA135594EA0C0FD1
:1005900095EA0C0F00F0DEF82C4481EA030621EA0C
:1005A0004C5123EA4C5350EA013518BF52EA033547
:1005B00041F4801143F4801338D0A0FB02CE4FF0F9
:1005C0000005E1FB02E506F00042E0FB03E54FF029
:1005D0000006E1FB03569CF0000F18BF4EF0010E21
:1005E000A4F1FF04B6F5007F64F5407404D25FEA1D
:1005F0004E0E6D4146EB060642EAC62141EA5551D0
:100600004FEAC52040EA5E504FEACE2EB4F1FD0C11
:1006100088BFBCF5E06F1ED8BEF1004F08BF5FEA8F
:10062000500E50F1000041EB045170BD06F0004641
:1006300046EA010140EA020081EA0301B4EB5C04EE
:10064000C2BFD4EB0C0541EA045170BD41F48011E6
:100650004FF0000E013C00F3AB8014F1360FDEBF0B
:10066000002001F0004170BDC4F10004203C35DAE7
:100670000C341BDC04F11404C4F1200500FA05F36A
:1006800020FA04F001FA05F240EA020001F000420B
:1006900021F0004110EBD37021FA04F642EB060181
:1006A0005EEA430E08BF20EAD37070BDC4F10C04AB
:1006B000C4F1200500FA04F320FA05F001FA04F26F
:1006C00040EA020001F0004110EBD37041F100015B
:1006D0005EEA430E08BF20EAD37070BDC4F1200566
:1006E00000FA05F24EEA020E20FA04F301FA05F2CE
:1006F00043EA020321FA04F001F0004121FA04F276
:1007000020EA020000EBD3705EEA430E08BF20EA45
:10071000D37070BD94F0000F0FD101F0004640007F
:1007200041EB010111F4801F08BF013CF7D041EA01
:10073000060195F0000F18BF704703F00046520005
:1007400043EB030313F4801F08BF013DF7D043EAD6
:100750000603704794EA0C0F0CEA135518BF95EA8C
:100760000C0F0CD050EA410618BF52EA4306D1D113
:1007700081EA030101F000414FF0000070BD50EA32
:10078000410606BF1046194652EA430619D094EABC
:100790000C0F02D150EA013613D195EA0C0F05D1A6
:1007A00052EA03361CBF104619460AD181EA0301FA
:1007B00001F0004141F0FE4141F470014FF00000B2
:1007C00070BD41F0FE4141F4780170BD70B54FF04D
:1007D000FF0C4CF4E06C1CEA11541DBF1CEA1355CD
:1007E00094EA0C0F95EA0C0F00F0A7F8A4EB0504AF
:1007F00081EA030E52EA03354FEA013100F08880A6
:100800004FEA03334FF0805545EA131343EA12636E
:100810004FEA022245EA111545EA10654FEA002623
:100820000EF000419D4208BF964244F1FD0404F5DC
:10083000407402D25B084FEA3202B61A65EB030538
:100840005B084FEA32024FF480104FF4002CB6EBF5
:10085000020E75EB030E22BFB61A754640EA0C0075
:100860005B084FEA3202B6EB020E75EB030E22BFB5
:10087000B61A754640EA5C005B084FEA3202B6EBF6
:10088000020E75EB030E22BFB61A754640EA9C00B5
:100890005B084FEA3202B6EB020E75EB030E22BF85
:1008A000B61A754640EADC0055EA060E18D04FEA43
:1008B000051545EA16754FEA06164FEAC30343EAE3
:1008C00052734FEAC2025FEA1C1CC0D111F4801FB0
:1008D0000BD141EA00014FF000004FF0004CB6E7A9
:1008E00011F4801F04BF01430020B4F1FD0C88BF48
:1008F000BCF5E06F3FF6AFAEB5EB030C04BFB6EB53
:10090000020C5FEA500C50F1000041EB045170BD45
:100910000EF0004E4EEA113114EB5C04C2BFD4EB72
:100920000C0541EA045170BD41F480114FF0000EF6
:10093000013C90E645EA060E8DE60CEA135594EA72
:100940000C0F08BF95EA0C0F3FF43BAF94EA0C0F75
:100950000AD150EA01347FF434AF95EA0C0F7FF4EA
:1009600025AF104619462CE795EA0C0F06D152EA3E
:1009700003353FF4FDAE1046194622E750EA410622
:1009800018BF52EA43067FF4C5AE50EA41047FF433
:100990000DAF52EA43057FF4EBAE12E74FF0FF3C98
:1009A00006E000BF4FF0010C02E000BF4FF0010C69
:1009B0004DF804CD4FEA410C7FEA6C5C4FEA430CE2
:1009C00018BF7FEA6C5C1BD001B050EA410C0CBF31
:1009D00052EA430C91EA030F02BF90EA020F002093
:1009E000704710F1000F91EA030F58BF994208BFFA
:1009F00090422CBFD8176FEAE37040F001007047B7
:100A00004FEA410C7FEA6C5C02D150EA013C07D10D
:100A10004FEA430C7FEA6C5CD6D152EA033CD3D058
:100A20005DF8040B704700BF8446104662468C4652
:100A30001946634600E000BF01B5FFF7B7FF002885
:100A400048BF10F1000F01BD4DF808EDFFF7F4FFAE
:100A50000CBF012000205DF808FB00BF4DF808ED39
:100A6000FFF7EAFF34BF012000205DF808FB00BF5C
:100A70004DF808EDFFF7E0FF94BF012000205DF87E
:100A800008FB00BF4DF808EDFFF7CEFF94BF012033
:100A900000205DF808FB00BF4DF808EDFFF7C4FF2C
:100AA00034BF012000205DF808FB00BF4FEA410C75
:100AB0007FEA6C5C02D150EA013C0AD14FEA430C58
:100AC0007FEA6C5C02D152EA033C02D14FF0000095
:100AD00070474FF0010070474FEA410212F50012D3
:100AE00015D211D56FF47873B3EB625212D94FEA75
:100AF000C12343F0004343EA505311F0004F23FA5F
:100B000002F018BF404270474FF00000704750EAB3
:100B1000013005D111F0004008BF6FF00040704770
:100B20004FF00000704700BF4A0011D212F50012CA
:100B300011D20DD56FF47873B3EB62520ED44FEA35
:100B4000C12343F0004343EA505323FA02F07047B5
:100B50004FF00000704750EA013002D14FF0FF30F3
:100B600070474FF0000070470348044B834202D0A7
:100B7000034B03B118477047D8010020D80100206B
:100B8000000000000548064B1B1AD90F01EBA3011A
:100B9000491002D0034B03B118477047D801002019
:100BA000D80100200000000010B5064C237843B99E
:100BB000FFF7DAFF044B13B10448AFF300800123C1
:100BC000237010BDD801002000000000CCAA00084E
:100BD00008B5054B1BB105490548AFF30080BDE8DA
:100BE0000840FFF7CFBF00BF00000000DC0100207D
:100BF000CCAA000800234FF46021012230B512482E
:100C0000124C85B0CDE90133046000930373037582
:100C1000C16143608360026101F0ACFF60B90024F0
:100C20000125072369460848CDE90045029301F0F4
:100C3000B1FE20B905B030BD00F052FFEFE700F083
:100C40004FFF05B030BD00BF40020020002401402E
:100C500070B50024214B026886B09A42CDE9024467
:100C6000CDE9044401D006B070BD03F56C439A6928
:100C700002A942F400729A619A69054602F4007270
:100C80000092009A9A69164E42F004029A619B699A
:100C9000012203F004030193032301981148CDE9D5
:100CA000022302F025FC80230F494FF48072C6E92D
:100CB0000014F3604FF4806120233046B460F46187
:100CC00071613261B36102F0E1F818B92E627562A8
:100CD00006B070BD00F004FFF8E700BF002401403B
:100CE000F801002000080140080002400F4B00B549
:100CF000586983B040F0010058615B69002203F03D
:100D00000103052101930B20019B02F065F80B20E4
:100D100002F0A8F80F200022052102F05DF80F2054
:100D200003B05DF804EB02F09DB800BF0010024074
:100D300008B5244807F0A2FF2349244800F0D4FE58
:100D4000224800F0E7FE214801F044F90723012280
:100D500005211E4801F018F901211C4801F04CF84A
:100D600000211A4801F07EF80421184801F00EF81D
:100D70001749164801F0B0F81549144801F0D8F8A1
:100D80000321124800F07AFF0121104800F0DCFE38
:100D900001210E4800F030FF01210C4800F010FF47
:100DA0000A4800F045FF094D0A4C642005F0A4F9FB
:100DB000284601F0E9F94FF40051204602F088FD81
:100DC000F3E700BF08AB0008880300207C02002086
:100DD0003333D3400010014070B500240D4B0E4E4C
:100DE000186800F009FE00F065FA204600F0F6FDF4
:100DF00001F0B8FD01F0B6FD0546204600F0EEFD1D
:100E000001F0B0FD014604343046491BA4B207F09E
:100E1000CDFEEFE77002002014AB000810B50446C9
:100E200082B04FF0FF3301220DF1070103488DF826
:100E3000074004F079FE204602B010BDB80500203E
:100E400010B500210A4A0B4805F0F6F804460A4B93
:100E500000210A4A0A481C6005F0EEF80246094BD8
:100E600009481A6005F062F9084B186010BD00BF10
:100E700080AB0008310D0008780200205CAB000850
:100E8000D90D0008740200204CAB0008700200204D
:100E90000246014807F08ABE20AB00082DE9F04366
:100EA000002489B0CDE90444CDE906444D4B4FF010
:100EB00002089A694C4E42F010029A619A69DFF872
:100EC0002C9102F010020092009A9A69484D42F06B
:100ED00020029A619A69304602F020020192019A3A
:100EE0009A6942F2300142F004029A619A6901273C
:100EF00002F004020292029A9A6942F008029A6190
:100F00009B69224603F008030393039B02F0C6FC8F
:100F100022464146484602F0C1FC2246284641F29C
:100F2000070102F0BBFC42F23003304604A90493EF
:100F3000CDE90574CDF81C8002F0DAFA4DF28F325B
:100F40000323304604A9CDE9042302F0D1FA484630
:100F500004A9CDE90487CDE9064802F0C9FA49F6AB
:100F600010120323484604A9CDE9042302F0C0FA75
:100F700041F20703284604A90493CDE90574CDF88E
:100F80001C8002F0B5FA40221A4B304604A9CDE984
:100F90000423069702F0ACFA0422032304A916489E
:100FA000CDE9042302F0A4FA38220323284604A939
:100FB000CDE9042302F09CFA00234FF44072284646
:100FC00004A9CDE90423069402F092FA22460521F1
:100FD000172001F001FF172001F044FF09B0BDE820
:100FE000F08300BF001002400010014000080140E3
:100FF000000C0140000021100014014000234FF4B8
:10100000804210B509480A4C0A4904604160836077
:10101000C360026143618361C361036202F0C2FD88
:1010200000B910BDBDE8104000F05ABD8803002093
:1010300000540040801A06000023D0B5144A01680D
:1010400086B09142CDE90233CDE9043301D006B038
:10105000D0BD0322C02612270E4C0F48A36902A957
:1010600043F00803A361A369CDE9026703F0080315
:101070000093009B059202F03BFAE36943F40013EE
:10108000E361E36903F400130193019B06B0D0BD53
:101090000054004000100240000C01402DE9F04FC8
:1010A0002A27434E83B0434D8346434C894692469C
:1010B00030468DF80470002201210027984602F086
:1010C000EDFB01A90122284604F078F84FF0FF3328
:1010D00000220121206805F087F801224FEA1B2336
:1010E00063F307076BF30F274FEA1A2363F31747DE
:1010F000304611466AF31F67019702F0CFFB0422C6
:1011000028460DEB020104F059F84FF0FF3300229E
:101110000121206805F068F82B23304600220121C8
:101120008DF8043002F0BAFB01A90122284604F030
:1011300045F84FF0FF3300220121206805F054F8F4
:10114000002001224FEA192363F3070069F30F20FF
:101150004FEA182363F3174068F31F6011460190AC
:10116000304602F09BFB042228460DEB020104F0FE
:1011700025F84FF0FF3300220121206805F034F8F4
:101180002C233046002201218DF8043002F086FB2A
:1011900001A90122284604F011F84FF0FF33002284
:1011A0000121206805F020F803B0BDE8F08F00BFF2
:1011B000000C014028040020DC0300202DE9F04F42
:1011C0001C46831883B0B3F5A07F05468846BDF85A
:1011D00030905ADC174602F1FF3A82441FFA8AFA2D
:1011E00008EB0403F02B37DC661E08EB060B00222D
:1011F000102129481FFA8BFB02F050FB5246414652
:1012000028465B46FFF74AFF012299FA99F91146F1
:101210002248ADF8049002F041FBACB18FB1204DF3
:101220003C46013C4FF0FF330222284601A9A4B2FC
:1012300003F0EAFE002CF4D1B4B22CB1661EEFE745
:10124000661EB4B2002CFBD101221021124802F01C
:1012500025FB03B0BDE8F08F002210210E4802F0FC
:101260001DFB524641462846EF23FFF717FF012298
:10127000C8F1F004A4B299FA99F911460748661E1C
:10128000ADF8049002F00AFBC8E7C0F5A07740F281
:101290003F1ABFB2A4E700BF00100140000C01409C
:1012A00028040020024B0121186804F05FBF00BF32
:1012B000DC0300202DE9F04F0124DFF8C0A385B046
:1012C00050460022102102F0E9FA00222021504667
:1012D000EB4E02F0E3FAC820DFF8A88301F048FBE8
:1012E000224650462021E84F02F0D8FA21463046E7
:1012F00000228DF8004002F0D1FA224669464046AD
:1013000003F05CFF21464FF0FF330022386804F001
:101310006BFFC82001F02CFBCB2300252146304673
:101320000022DFF868938DF8003002F0B7FA224609
:101330006946404603F042FF4FF0FF33214600224A
:10134000386804F051FF99E80300224600908DF8B8
:1013500004103046214602F0A1FA694605224046B3
:1013600003F02CFF2A4621464FF0FF33386804F083
:101370003BFFCF232A46214630468DF8003002F04D
:101380008DFA22466946404603F018FF2A46214658
:101390004FF0FF33386804F027FFD9F808302246B1
:1013A00021463046ADF800301B0C8DF8023002F0BB
:1013B00075FA69460322404603F000FF2A4621469B
:1013C0004FF0FF33386804F00FFFE8232A46214628
:1013D00030468DF8003002F061FA224669464046F8
:1013E00003F0ECFE2A4621464FF0FF33386804F044
:1013F000FBFED9F80C30224621463046ADF80030CD
:101400001B0C8DF8023002F049FA6946032240466F
:1014100003F0D4FE2A4621464FF0FF33386804F02B
:10142000E3FEEA232A46214630468DF8003002F0DA
:1014300035FA22466946404603F0C0FE4FF0FF33BE
:101440002A462146386804F0CFFE2246214630461F
:10145000ADF8005002F022FA69460222404603F03D
:10146000ADFE2A4621464FF0FF33386804F0BCFE3B
:10147000ED232A46214630468DF8003002F00EFA60
:1014800022466946404603F099FE2A4621464FF01F
:10149000FF33386804F0A8FE7D4B224621463046D3
:1014A000009302F0FBF969460422404603F086FEF1
:1014B0002A4621464FF0FF33386804F095FEF723A3
:1014C0002A46214630468DF8003002F0E7F92246E0
:1014D0006946404603F072FE2A4621464FF0FF332C
:1014E000386804F081FE20232246214630468DF8DC
:1014F000003002F0D3F922466946404603F05EFE12
:101500002A4621464FF0FF33386804F06DFEC023B1
:101510002A46214630468DF8003002F0BFF92246B7
:101520006946404603F04AFE2A4621464FF0FF3303
:10153000386804F059FE23232246214630468DF8B0
:10154000003002F0ABF922466946404603F036FE11
:101550002A4621464FF0FF33386804F045FEC12388
:101560002A46214630468DF8003002F097F922468F
:101570006946404603F022FE2A4621464FF0FF33DB
:10158000386804F031FE4FF0100322462146304601
:101590008DF8003002F082F922466946404603F099
:1015A0000DFE2A4621464FF0FF33386804F01CFE3A
:1015B000C5232A46214630468DF8003002F06EF9E8
:1015C00022466946404603F0F9FD2A4621464FF07F
:1015D000FF33386804F008FE42F63E0322462146F7
:1015E0003046ADF8003002F059F969460222404613
:1015F00003F0E4FD2A4621464FF0FF33386804F03B
:10160000F3FDC7232A46214630468DF8003002F00C
:1016100045F922466946404603F0D0FD2A46214658
:101620004FF0FF33386804F0DFFD86234FF0360BB0
:101630002246214630468DF8003002F02FF922462E
:101640006946404603F0BAFD4FF0FF332A46214673
:10165000386804F0C9FD2A46214630468DF800B0AE
:1016600002F01CF922466946404603F0A7FD2A46CF
:1016700021464FF0FF3338680CE000BF00100140F6
:10168000000C014028040020DC030020E8AA000828
:101690006403128104F0A8FD482322462146304607
:1016A0008DF8003002F0FAF822466946404603F011
:1016B00085FD2A4621464FF0FF33386804F094FD3B
:1016C0003A232A46214630468DF8003002F0E6F8EB
:1016D00022466946404603F071FD2A4621464FF0F6
:1016E000FF33386804F080FD5523224621463046FA
:1016F0008DF8003002F0D2F822466946404603F0E9
:101700005DFD2A4621464FF0FF33386804F06CFD3A
:10171000B1232A46214630468DF8003002F0BEF84B
:1017200022466946404603F049FD2A4621464FF0CD
:10173000FF33386804F058FD4FF4C0532246214669
:101740003046ADF8003002F0A9F869460222404662
:1017500003F034FD2A4621464FF0FF33386804F089
:1017600043FDB6232A46214630468DF8003002F06C
:1017700095F822466946404603F020FD2A46214658
:101780004FF0FF33386804F02FFD924B22461B6860
:1017900021463046ADF800301B0C8DF8023002F0C7
:1017A0007DF869460322404603F008FD2A4621469B
:1017B0004FF0FF33386804F017FDF2232A46214624
:1017C00030468DF8003002F069F8224669464046FE
:1017D00003F0F4FC4FF0FF332A462146386804F04A
:1017E00003FD2246214630468DF8005002F056F89F
:1017F00022466946404603F0E1FC2A4621464FF066
:10180000FF33386804F0F0FC26232A462146304690
:101810008DF8003002F042F822466946404603F057
:10182000CDFC4FF0FF332A462146386804F0DCFC3B
:101830002246214630468DF8004002F02FF822461D
:101840006946404603F0BAFC2A4621464FF0FF3372
:10185000386804F0C9FCE0232A46214630468DF85A
:10186000003002F01BF822466946404603F0A6FC11
:101870002A4621464FF0FF33386804F0B5FCEC46A9
:10188000554B09F110090FCBACE807002CF8023BCF
:101890001B0C8CF8003022462146304601F0FEFF3A
:1018A00069460F22404603F089FC2A4621464FF044
:1018B000FF33386804F098FCE1232A46214630467D
:1018C0008DF8003001F0EAFF22466946404603F0F9
:1018D00075FC2A4621464FF0FF33386804F084FC3B
:1018E00099E80F00EC46ACE807002CF8023B1B0C13
:1018F0008CF8003022462146304601F0CFFF694681
:101900000F22404603F05AFC2A4621464FF0FF338F
:10191000386804F069FC11232A46214630468DF8C8
:10192000003001F0BBFF22466946404603F046FC0A
:101930002A4621464FF0FF33386804F055FC7820E2
:1019400001F016F829232A46214630468DF800304A
:1019500001F0A4FF22466946404603F02FFC4FF0F9
:10196000FF332A462146386804F03EFC2A462146C9
:1019700030468DF800B001F091FF2246694640469E
:1019800003F01CFC2A4621464FF0FF33386804F070
:101990002BFC28232246214630468DF8003001F0EA
:1019A0007DFF22466946404603F008FC2A464FF078
:1019B000FF332146386804F017FC224650461021B8
:1019C00001F06CFF22460221304605B0BDE8F04F21
:1019D00001F064BFA4AB0008A8AB0008002100B56B
:1019E00083B00090F0234FF4A0720846FFF7E6FBA7
:1019F00003B05DF804FB00BF014B1860704700BFE7
:101A0000DC0300200023012210B5012096B04FF422
:101A100080310224CDE91133CDE90233CDE904331D
:101A2000CDE90733CDE909330E9301930693109264
:101A30000F934FF480320B934FF4E013CDE90C0178
:101A40000CA813941492159302F0BAFC08B172B664
:101A5000FEE703460F22CDE9024305934FF480636E
:101A6000214601A80493019202F048FF08B172B622
:101A7000FEE74FF4004306A80694089303F098F895
:101A800008B172B6FEE716B010BD00BF08B500F091
:101A90004BFFFFF7B7FFFFF701FAFFF727F900F059
:101AA000D1FB00F0F1FB00F0BDFD00F0D7FD00F030
:101AB000F1FDFFF7A3FAFFF79DF800F007FE04F031
:101AC0007FFAFFF7BDF904F095FAFEE7034B0268D1
:101AD0009A4200D0704700F039BF00BF00140040A8
:101AE00072B6FEE7704700BF70B50B460025802632
:101AF00004463246294680F804510360043007F05A
:101B00009DF93246294604F18400BDE8704007F093
:101B100095B900BF70B5054682B0022006F050FAB4
:101B20004FF47A76044644F20902286802230096AC
:101B3000AE212280224602F077F9204602B0BDE8AD
:101B4000704006F045BA00BF2DE9F0414FF47A78B5
:101B50000227002406460D4684B0CDF800800DF122
:101B60000F020123AE2100688DF80E408DF80F7032
:101B700002F05AF9CDF800800DF10E020123AE21DA
:101B8000306802F03FFA9DF80E40384604F07F04BA
:101B900044EAC514E4B28DF80E4006F011FA054689
:101BA000CDF800803B46AE212A4630682F706C701D
:101BB00002F03AF9284604B0BDE8F04106F008BA50
:101BC000F0B5064683B002200C4606F0F9F9022370
:101BD00005464FF47A77032264001C403068AE213A
:101BE00000972A706C702A4602F01EF9284603B04E
:101BF000BDE8F04006F0ECB9F0B5064683B002202F
:101C00000C4606F0DDF9022305464FF47A772122CF
:101C100064001C403068AE2100972A706C702A4620
:101C200002F002F9284603B0BDE8F04006F0D0B952
:101C300030B5044690F8040185B001281BD04FF45C
:101C40007A754FF0000C0123AE2120680DF10B02D4
:101C50000095ADF80CC08DF80BC002F0E5F82068D7
:101C60000123AE21009503AA02F0CCF99DF80C00E7
:101C7000C00984F8040105B030BD00BF2DE9F04370
:101C80004FF47A764FF009090446884685B00096ED
:101C900003AA0123AE2100688DF80C9002F0C4F86D
:101CA00000960DF10B02AE210123206802F0AAF983
:101CB0009DF80B30022023F0070348EA03088DF853
:101CC0000B8006F07DF9074600963A46AE210223C6
:101CD00087F8009087F80180206802F0A5F80425B5
:101CE000384606F075F900232846039306F068F994
:101CF0000746BC469DF80EE0BDF80C8000960CF837
:101D0000015B2B463A46AE21A7F8018020688CF88B
:101D100002E002F089F8384606F05AF9284606F043
:101D20004FF907464FF006083A46BDF80CE09DF81B
:101D30000EC0009602F8018B2B46A7F801E0AE21F9
:101D400082F802C020683A4602F06EF8384606F083
:101D50003FF9284606F034F9024600960527206828
:101D600014462B469DF80E60BDF80C5002F8017B1E
:101D7000AE21A4F801509670224602F055F8204694
:101D800005B0BDE8F04306F023B900BF2DE9F041EE
:101D90004FF47A780A27064684B0CDF800800DF11A
:101DA0000F020123AE2100688DF80F7002F03CF89D
:101DB000CDF800800DF10E020123AE21306802F053
:101DC00021F902209DF80E50854005F08C058DF814
:101DD0000E5006F0F5F80446CDF800800223AE213F
:101DE000224630682770657002F01EF8204604B065
:101DF000BDE8F04106F0ECB82DE9F0414FF47A77F8
:101E00004FF00A0806460D4684B000970DF10F0208
:101E10000123AE2100688DF80F8002F005F80097CD
:101E20000DF10E02AE210123306802F0EBF89DF8AF
:101E30000E30022003F07C031D438DF80E5006F097
:101E4000BFF8044600970223AE212246306884F88A
:101E50000080657001F0E8FF204604B0BDE8F04165
:101E600006F0B6B82DE9F0414FF47A780A27064615
:101E70000D4684B0CDF800800DF10F020123AE2194
:101E800000688DF80F7001F0CFFFCDF800800DF1E4
:101E90000E020123AE21306802F0B4F89DF80E4026
:101EA000022004F01F0444EA4514E4B28DF80E4009
:101EB00006F086F80546CDF800800223AE212A46BA
:101EC00030682F706C7001F0AFFF284604B0BDE899
:101ED000F04106F07DB800BF70B5054682B0022023
:101EE0000E4606F06DF80C23044630462370FEF7CC
:101EF000EBFA0DA3D3E90023FEF768FCFEF714FE0E
:101F00004FF47A7684460223286884F801C022467A
:101F1000AE21009601F088FF204602B0BDE8704077
:101F200006F056B8AFF300809A9999999999C93FEC
:101F300070B5054682B002200E4606F041F80D232A
:101F4000044630462370FEF7BFFA0DA3D3E9002301
:101F5000FEF73CFCFEF7E8FD4FF47A768446022358
:101F6000286884F801C02246AE21009601F05CFF8B
:101F7000204602B0BDE8704006F02AB8AFF30080FA
:101F80009A9999999999C93F2DE9F041074682B0EC
:101F90000220884615461C4606F012F84FF47A7364
:101FA0000646082204F00F042D0144EA481405F007
:101FB000100500932C43327002233246AE2138685C
:101FC000747001F031FF304602B0BDE8F04105F019
:101FD000FFBF00BF2DE9F04100230646042084B076
:101FE0000546039305F0ECFF04464FF47A77A446C8
:101FF0009DF80EE0BDF80C8000970CF8015B2B46B5
:102000002246AE21A4F8018030688CF802E001F08D
:102010000BFF204605F0DCFF284605F0D1FF044603
:102020004FF006082246BDF80CE09DF80EC0009760
:1020300002F8018B2B46A4F801E0AE2182F802C021
:102040003068224601F0F0FE204605F0C1FF284628
:1020500005F0B6FF044600972246306805262B4659
:102060009DF80E70BDF80C5002F8016BAE21A4F87B
:1020700001509770224601F0D7FE204604B0BDE81B
:10208000F04105F0A5BF00BF2DE9F04300254FF456
:102090007A740427064687B08DF80D508DF80E50DF
:1020A000062500940123AE2104AA00688DF8107063
:1020B00001F0BAFE00940123AE210DF10D0230684B
:1020C00001F0A0FF00940123AE2104AA30688DF82E
:1020D000105001F0A9FE009401230DF10E02AE2173
:1020E000306801F08FFF9DF80D309DF80E209B1A8F
:1020F0004FFA83F8B8F1000F3BDD354600244FF06E
:1021000007094FF47A770123AE2130680DF10F02F1
:1021100000978DF80F9001F087FE0623AE213068FE
:1021200004AA009701F06EFF9DF811009DF810C001
:102130009DF812309DF8141000029DF8132040EA1B
:102140000C40184309029DF8153041EA0241194339
:10215000C0F31100C1F3110145F8040FC5F8801058
:102160000134FEF795FE63B29845CCDC07B0BDE8BC
:10217000F083DBB220334FFA83F8B8F1000FBCDCF8
:1021800007B0BDE8F08300BF30B54FF47A754FF06B
:10219000000C044685B000950123AE210DF10B0221
:1021A0000068ADF80CC08DF80BC001F03DFE009545
:1021B0000223AE21206803AA01F024FF9DF80C3011
:1021C000DB0908D19DF80D309B070BD4002384F860
:1021D000043105B030BD2046FFF756FF9DF80D30A5
:1021E0009B07F3D54FF47A754FF01F0C20680DF163
:1021F0000B020123AE2100958DF80BC001F014FEF7
:1022000000950DF109020123AE21206801F0FAFECC
:102210004FF0200C00950DF10B020123AE21206838
:102220008DF80BC001F000FE20680123AE2100955F
:102230000DF10A0201F0E6FE002384F8043105B036
:1022400030BD00BF38B5302100234FF482754FF404
:1022500000740A220A48C0E90153C0E90333C0E907
:102260000534C0E9071343628362064BC262036010
:1022700002F09CFD00B938BDBDE83840FFF730BC26
:10228000800400200030014010B500234FF4827418
:102290004FF400710A220B48C0E90143C0E903333F
:1022A000C0E90531C0E9073343628362064BC2626D
:1022B000036002F07BFD00B910BDBDE81040FFF7E0
:1022C0000FBC00BF2804002000380040F0B50024F7
:1022D0003F4A036889B09342CDE90444CDE90644FE
:1022E00004D03C4A934229D009B0F0BD3A4BA02615
:1022F0009A69022742F480529A619A6904A902F409
:1023000080520092009A9A69344842F004029A611D
:102310009B69CDE9046703F0040301930323019A49
:10232000079301F0E5F8402200232C4804A9CDE9E9
:102330000423069401F0DCF809B0F0BD264B0546F5
:10234000DA69274842F48042DA61DA69254E02F4FC
:1023500080420292029A9A6942F008029A619B694D
:102360004FF4204203F0080303930399032102234F
:10237000079104A9CDE9042301F0BAF84FF4804293
:102380000023174804A9CDE90423069401F0B0F80E
:10239000154B1021802233604FF480533046B460D7
:1023A00034617461B4617160F260F36100F06EFDDC
:1023B00058B9002205212420AE64756200F00CFD9E
:1023C000242000F04FFD09B0F0BDFFF789FBF0E7D6
:1023D0000030014000380040001002400008014079
:1023E000000C0140E003002058000240114B10B5E2
:1023F000986982B040F0010098619C69002204F065
:1024000001040094009CDC690F2144F08054DC61DD
:10241000DB696FF0010003F080530193019B00F032
:10242000DBFC054A536823F0E06343F0007353601C
:1024300002B010BD0010024000000140234B70B5F7
:10244000DA6988B042F02002DA61DB69054603F000
:102450002003029301A903A8029B02F077FB069BCD
:10246000D3B902F053FB0346002240F2E736184985
:10247000184CA1FB03139B0C013B6360164B2046D9
:10248000C4E90362A260A261236003F04FF906462B
:1024900030B1304608B070BD02F038FB4300E3E7CE
:1024A000204602F0E3FF06460028F2D1372000F074
:1024B000D9FC0F2D01D90126EBE7324629463720FA
:1024C00000F08AFC054B1D60E3E700BF00100240EE
:1024D00083DE1B43D80400200014004008000020C5
:1024E000FEE700BFFEE700BFFEE700BFFEE700BF5C
:1024F000FEE700BF704700BF014800F0A3BE00BF69
:10250000F8010020014800F09DBE00BFE00300205C
:10251000402001F0F5B900BF014802F025BF00BF1F
:1025200028040020014803F0C5BB00BFB805002007
:10253000014803F0BFBB00BF70050020014803F055
:10254000B9BB00BF28050020014803F0B3BB00BFA2
:1025500000060020014802F0EBBF00BFD8040020B5
:102560000120704708B506F0CBFC162203464FF059
:10257000FF301A6008BD00BF08B506F0C1FC162385
:102580000360FEE770B5161E07DD0C468D19AFF32C
:10259000008004F8010BA542F9D1304670BD00BFA0
:1025A00070B5161E07DD0C468D1914F8010BFEF7E9
:1025B00035FCA542F9D1304670BD00BF4FF0FF3069
:1025C000704700BF4FF4005300204B60704700BFBE
:1025D00001207047002070470D49034610B50D4A91
:1025E0000D4C0868121B20B10344934207D80B60BE
:1025F00010BD0A4C2046034493420C60F7D906F004
:102600007FFC0C2203464FF0FF301A6010BD00BF64
:102610002005002000C0002000040000E03C002055
:10262000704700BF00234FF416510C2210B5094823
:10263000094CC0E90113C0E90333046042618361BE
:10264000C36103F0F1F900B910BDBDE81040FFF718
:1026500047BA00BF00060020004C004000234FF4A2
:10266000E1310C2210B50948094CC0E90113C0E959
:102670000333046042618361C36103F0D5F900B99B
:1026800010BDBDE81040FFF72BBA00BFB805002011
:102690000038014000234FF416510C2210B50948B0
:1026A000094CC0E90113C0E903330460426183614E
:1026B000C36103F0B9F900B910BDBDE81040FFF7E0
:1026C0000FBA00BF700500200044004000234FF403
:1026D000E1310C2210B50948094CC0E90113C0E9E9
:1026E0000333046042618361C36103F09DF900B963
:1026F00010BDBDE81040FFF7F3B900BF280500206A
:1027000000480040D0B500246C4A03688CB0934266
:10271000CDE90844CDE90A443CD0694A93426BD0E4
:10272000684A934200F09A80674A934201D00CB005
:10273000D0BD664B4FF48066DA69022742F48022EE
:10274000DA61DA6908A902F480220692069A9A6987
:102750005F4842F008029A619B69CDE9086703F07F
:10276000080307930323079A0B9300F0C1FE00238D
:102770004FF4006208A95648CDE908230A9400F0F6
:10278000B7FE22462720052100F026FB272000F077
:1027900069FBCCE74D4B4FF48066DA69022742F4BF
:1027A0000022DA61DA6908A902F400220092009A94
:1027B0009A69484842F010029A619B69CDE908671E
:1027C00003F0100301930323019A0B9300F090FE92
:1027D00000234FF4006208A93E48CDE908230A947B
:1027E00000F086FE22460521342000F0F5FA342060
:1027F00000F038FB0CB0D0BD344B4FF400769A6932
:10280000022742F480429A619A6908A902F4804240
:102810000292029A9A69304842F004029A619B69D6
:10282000CDE9086703F0040303930323039A0B9392
:1028300000F05EFE00234FF4806208A92648CDE92F
:1028400008230A9400F054FE22460521252000F0BA
:10285000C3FA252000F006FB0CB0D0BD1B4B0426AC
:10286000DA69022742F40032DA61DA6908A902F46F
:1028700000320492049A9A69174842F004029A615D
:102880009B69CDE9086703F0040305930323059AC8
:102890000B9300F02DFE0023082208A90E48CDE975
:1028A00008230A9400F024FE22460521262000F089
:1028B00093FA262000F0D6FA0CB0D0BD004C0040B0
:1028C0000038014000440040004800400010024031
:1028D000000C01400010014000080140FFF7A0FE7D
:1028E0000B480C490C4A002302E0D458C45004336E
:1028F000C4188C42F9D3094A094C002301E0136043
:102900000432A242FBD306F001FBFFF7BFF8704789
:1029100000000020D8010020C0B10008D80100202C
:10292000DC3C0020FEE70000074A08B513680320DE
:1029300043F01003136000F031FA0F20FFF77EFD23
:10294000FFF754FD002008BD00200240034A044B5D
:1029500011681B780B441360704700BF48060020C5
:1029600004000020014B1868704700BF4806002093
:1029700038B50446FFF7F6FF631C054602D0044B4A
:102980001B781C44FFF7EEFF401BA042FAD338BD72
:1029900004000020002330B583B05D4A0193036832
:1029A000054693420C460CD002F58062934208D053
:1029B00002F5A052934204D040F2D6715548FFF779
:1029C00091F82368112B71D86368013B0F2B67D8EE
:1029D000A368072B58D895F82430012B5DD001222D
:1029E00085F8242060682B680628226800EB8001A7
:1029F0002DD90C2860D84FF01F0C186B233902FA20
:102A000001FE0CFA01F120EA010141EA0E0119630D
:102A1000092AA16802EB42002BD907241E38814005
:102A20008440D86820EA04000143A2F11000012884
:102A3000D96027D836498B424CD00120AB6A43F08D
:102A40002003AB62002385F8243003B030BD4FF083
:102A50001F0C586B053902FA01FE0CFA01F120EA4D
:102A6000010141EA0E01092A596302EB4200A16803
:102A7000D3D807241A69814004FA00F022EA000240
:102A80000A431A610020DDE740F2D9712148FFF7BF
:102A900029F895F82430012BA1D1022003B030BDD4
:102AA0004FF4FB611B48FFF71DF891E740F2D77127
:102AB0001848FFF717F887E74FF01F0CD86A41391D
:102AC00002FA01FE0CFA01F120EA010141EA0E01CD
:102AD000D9629DE799680902D4D49968102A41F413
:102AE00000019960CED10C4B0C4A1B68A2FB03235A
:102AF0009B0C03EB83035B000193019B002BC1D074
:102B0000019B013B0193019B002BF9D1BAE700BF68
:102B100000240140D0AB00080000002083DE1B43EE
:102B200038B503689A68D40701D4002038BD04463C
:102B30009A6822F001029A60FFF714FF23680546A5
:102B40009B68D907F1D502E09B68DB07EDD5FFF75D
:102B500009FF431B022B2368F6D99A68D207F3D5E5
:102B60000120A36A43F01003A362E36A0343E36214
:102B700038BD00BF002800F0D980F8B5824A03684C
:102B8000044693420CD002F58062934208D002F5CD
:102B9000A052934204D040F2A9117C48FEF7A2FF54
:102BA000636833F4006304D04FF4D5717748FEF7BF
:102BB00099FFA36833F4807304D040F2AB117348DB
:102BC000FEF790FF237B012B74D8E36933F4C02315
:102BD00007D0B3F5002F04D040F2AD116B48FEF7DB
:102BE00081FFA3686BB12369013B0F2B00F2988032
:102BF000237D012B6FD823B1A369013B072B00F282
:102C00008380A36A002B5FD02046FFF789FFA36A69
:102C100013F0100348D1002846D1A16A22685C4E07
:102C200021F4885121F0020141F00201B242A16277
:102C3000E56961686ED0267B94F814E041EA4601AC
:102C40002943A568B5F5807F4CD0A5F1010CBCFAED
:102C50008CFCBEF1010F4FEA5C1C4FEA0C2C68D0D3
:102C6000566826F4694646EA0C0656609768494E4F
:102C70003E400E439660012D42D0D56A25F4700C7B
:102C80004CEA0303D3629268434B134099426AD0E3
:102C9000A36A012023F0120343F01003A362E36A46
:102CA00043F00103E362F8BDA36A012043F010037F
:102CB000A362F8BD4FF4D6713448FEF713FFE36901
:102CC00033F4C0238DD084E72046E36284F82430B7
:102CD000FDF7BEFF98E74FF4D9712C48FEF702FFCD
:102CE000237D88E7BEF1010F22D0536823F46943A6
:102CF00043F4807353609568264B2B400B439360DD
:102D00002369013B1B05B8E740F2B5111F48FEF7E8
:102D1000E9FE76E7B5F5402F08BF4FF400258AE7B6
:102D200040F2B1111948FEF7DDFE61E7012070475E
:102D3000AC460EB3A66A46F02006A662E66A46F0E6
:102D40000106E6625668B5F5807F26F4694646EAD4
:102D50000C06566097680F4E06EA070646EA01061B
:102D6000966088D1CCE70023E362A36A23F00303D3
:102D700043F00103A362F8BDA669013E4CEA463662
:102D800046F4006CDEE700BF00240140D0AB000831
:102D9000003C0140FDF7E1FFFE0E1FFFC31E042BA8
:102DA00010B504460ED84FF6FF0009492302CA6841
:102DB00003F4E0630240134343F0BF6343F4003382
:102DC000CB6010BD91210348FEF78CFEEBE700BFFE
:102DD00000ED00E008AC00080F2A70B51646054665
:102DE0000C4634D80F2C2DD81B4BDB68C3F30223C1
:102DF000C3F10702042A03F1040128BF04220629B3
:102E000017D9D91E4FF0FF338B4026EA03064FF047
:102E1000FF33934024EA03038B4033431B01002D0F
:102E2000DBB209DB05F1604505F5614585F8003346
:102E300070BD00263146EAE7084A05F00F052A442E
:102E4000137670BDAA210648FEF74CFECCE7A921F7
:102E50000348FEF747FEC5E700ED00E0FCEC00E0AC
:102E600008AC0008002808DB012300F01F01054A18
:102E700040098B4042F820307047BD210248FEF7E0
:102E800031BE00BF00E100E008AC0008002800F0FF
:102E9000B0800368584A70B59342044625D0143276
:102EA000934222D0143293421FD0143293421CD04A
:102EB0001432934219D01432934216D014329342F2
:102EC00013D002F5627293420FD0143293420CD0A9
:102ED0001432934209D01432934206D014329342F2
:102EE00003D099214548FEF7FDFD636833F01002D9
:102EF00065D1A36833F0400303D09B213F48FEF720
:102F0000F1FDE36833F0800303D09C213B48FEF7DA
:102F1000E9FD236933F4807202D0B3F5007F56D106
:102F2000636933F4806202D0B3F5006F58D1A369AE
:102F300033F0200303D09F213048FEF7D3FDE16931
:102F400031F4405304D0A0212C48FEF7CBFDE169B9
:102F500022682B4B9A4229D92A4B2B481344A0FBB9
:102F600003032A481B099B00E063022000254FF061
:102F7000010C2364D4E901363343E66884F8210068
:102F80003343266910683343666920F47F50334326
:102F9000A66920F03000334303430B431360A5635D
:102FA00084F8205084F821C0284670BD184B16487C
:102FB0001344A0FB03031B0916489B00D4E7B3F599
:102FC000804F96D09A210D48FEF78CFD91E79D2108
:102FD0000A48FEF787FD636933F48062A7D0A3E750
:102FE0009E210648FEF77EFDA36933F02003A6D09C
:102FF000A1E70120704700BF0800024044AC000870
:1030000007040240F8FBFDBFCDCCCCCC000402404D
:10301000F8FFFDBF000002402DE9F0414FF6FE75BC
:103020001E46013BAB4204468846174636D894F804
:103030002030012B0AD0012194F8213084F820108F
:103040008B42DAB205D0002384F820300220BDE89C
:10305000F081022384F8213000232568A363236CC8
:103060009A402B6823F001032B60E36B5A6063687E
:103070006E60102BE36A0BBFAF60C5F80880C5F81F
:103080000C80EF6083B12B6843F00E032B602B683C
:10309000002043F001032B60BDE8F0814FF4B771CD
:1030A0000648FEF71FFDC2E72B6823F004032B60E0
:1030B0002B6843F00A032B60E9E700BF44AC00082B
:1030C00090F821200346022A06D004229A630022A7
:1030D000012083F8202070474FF0010C1A6800206F
:1030E000116821F00E011160116821F001011160D9
:1030F000D3E90F120CFA02F24A60002283F821C0D1
:1031000083F82020704700BF08B590F821200346BF
:10311000022A03D0042201209A6308BD02684548B0
:103120001168824221F00E011160116821F0010145
:103130001160414924D98A4256D014318A425FD065
:1031400014318A425ED014318A4254D014318A42FA
:1031500061D014318A4264D0824268D001F567712F
:103160008A4241D014318A424AD014318A4249D02D
:1031700014318A4214BF4FF480324FF4805234E04D
:103180008A4222D014318A4238D014318A423CD04B
:1031900014318A422CD014318A4239D014318A42F7
:1031A0003CD0824240D001F567718A420DD0143183
:1031B0008A4223D014318A4227D014318A4214BF64
:1031C0004FF480324FF4805200E001221B494A60E4
:1031D000012000215A6B83F8210083F820100AB1E6
:1031E00018469047002008BD012215494A60EFE7C4
:1031F0004FF48052EAE74FF48052F6E71022E5E7F9
:103200001022F2E74FF48072EFE74FF48072DDE7AF
:103210004FF48032DAE74FF48032E6E74FF4801261
:10322000D4E74FF48012E0E74FF08072CEE74FF022
:103230008072DAE78000024008000240000002408D
:1032400000040240042270B4C66B016C3468036849
:103250008A4022421D6843D06A0741D51A68910608
:1032600003D41A6822F004021A609C4A9C499342D3
:1032700040F293808B4200F0F18014318B4200F0D9
:10328000F58014318B4200F0E48014318B4200F061
:10329000F88014318B4200F0008114318B4200F031
:1032A0000581934200F00E8102F56272934200F0B4
:1032B000D5801432934200F0D9801432934200F04A
:1032C000C8801432934214BF4FF480234FF48043DC
:1032D000844A5360C36A002B40F0B28070BC7047D0
:1032E00002228A4022423FD0AA073DD51A689106A1
:1032F00006D401211A6822F00A021A6080F821100F
:10330000764A774993426FD98B4200F0A9801431F5
:103310008B4200F0998014318B4200F0A980143167
:103320008B4200F0B18014318B4200F0BC8014312C
:103330008B4200F0C480934200F0CD8002F56272AF
:10334000934200F08D80143293427DD01432934228
:1033500000F08E801432934214BF4FF400324FF4C9
:103360000052604B5A6064E008228A402242B5D085
:103370002A07B3D51A68002422F00E021A6001232E
:10338000026B03FA01F17160836380F8204080F8DA
:103390002130002AA2D070BC10478B425CD014317F
:1033A0008B4261D014318B4250D014318B4265D0A6
:1033B00014318B426ED014318B427AD0934200F09C
:1033C0008480494A934247D0143293424CD01432FD
:1033D00093423BD01432934214BF4FF480234FF4F6
:1033E0008043424A536075E78B423BD014318B4295
:1033F00028D014318B423ED014318B4247D0143147
:103400008B424DD014318B4256D0934260D0364A15
:10341000934227D01432934214D0143293422AD0CC
:103420001432934214BF4FF400324FF400522F4B2A
:103430005A600022836A80F82020002B3FF44EAFB0
:1034400070BC18472022F2E720228AE74FF48063FD
:10345000C7E74FF480633BE70423C2E7042337E761
:1034600002227EE70222E2E74023BAE740232FE769
:103470004FF4007275E74FF40072D8E74FF48043C1
:10348000AFE74FF4804323E74FF4005269E74FF46E
:103490000052CCE74FF48023A3E74FF4802317E7D3
:1034A0004FF40032C3E74FF400325AE74FF4800381
:1034B0000EE74FF4800394E74FF40012B7E74FF4A0
:1034C00000124EE74FF0806302E74FF0806388E719
:1034D0004FF00072ABE74FF0007242E7800002400D
:1034E00008000240000402400804024000000240BC
:1034F0002DE9F04FA84B064698420F4683B01BD0EB
:1035000003F58063984217D003F58063984213D087
:1035100003F5806398420FD003F5806398420BD087
:1035200003F58063984207D003F58063984203D087
:10353000BD219A48FEF7D6FA3B689AB21AB1B3F5A4
:10354000803FC0F02381BE219448FEF7CBFA7A6811
:10355000012A0BD9924B9A4208D064D8A3F5801364
:103560009A4203D050D98F4B9A4252D13B68002BDC
:1035700056D04FF00009DFF820B24D46DFF828A200
:103580008A4A03E0013533FA05F149D00124AC4001
:1035900034EA030104EA0308F4D15E4519D0844BF0
:1035A0009E4216D0964214D003F500639E4210D07E
:1035B00003F580639E420CD003F580639E4208D0E1
:1035C00003F580639E4204D0CD217448FEF78AFA49
:1035D000764A7B68122B00F2B880122B40D8DFE8C5
:1035E00013F0C1000A01030119013F003F003F0031
:1035F0003F003F003F003F003F003F003F003F00D3
:103600003F003F00FC00F500032AAFD9113A012A20
:10361000ACD9BF216148FEF765FA3B68002BA8D101
:1036200003B0BDE8F08F634B9A429FD0A3F570239F
:1036300022F480129A4299D0BF215848FEF752FADC
:10364000EBE7A1F580118B4200F08C8001F5702131
:103650008B4200F08780A1F580118B4200F08280C0
:10366000B8F1FF0F00F289803446A9000F202368CB
:1036700009FA01FC00FA01F123EA010343EA0C0311
:1036800023607B68D9007FD5DAF8181005F00304B1
:1036900041F00101CAF81810DAF81810A40001F07E
:1036A00001010191019925F0030101F1804101F52A
:1036B0008031D1F808C0A0405E452CEA00001ED041
:1036C000DFF8ECC0664500F0AE80DFF8E0C066458C
:1036D00000F0A380DFF8E0C0664500F0BA80DFF8B4
:1036E000DCC0664500F0D080DFF8D4C066450CBF72
:1036F0004FF0050C4FF0060C0CFA04F420438860E0
:103700003048DC0281684CBF41EA080121EA080127
:1037100081602C489C02C1684CBF41EA080121EA43
:103720000801C16027489C0341684CBF41EA080179
:1037300021EA08014160234913F4803F0B6820D03F
:1037400043EA08030B603B681CE71F498B4209D022
:103750007FF677AF17498B4204D001F580318B4259
:103760007FF47EAFBB68022B6AD8002B61D1B8F121
:10377000FF0F4FF004097FF677AFA9002039341D01
:1037800074E723EA08030B603B68FBE67A68012ACA
:103790003FF6E0AEEDE600BF000801407CAC00085B
:1037A0000000211000001210001002400010014023
:1037B000000C0140000031100014014000180140CD
:1037C000001C01400004014000002210FB68591E4B
:1037D000022952D803F10C0942E7FB68591E02295D
:1037E00044D803F104093BE7FB68591E022936D887
:1037F00003F1080934E7D7F80C9009F1FF33022BE5
:103800007FF62EAFD5212348FEF76CF9D7F80C9040
:10381000214A25E74FF0000922E74FF0020C0CFA8D
:1038200004F420436BE74FF0010C0CFA04F420433E
:1038300065E7012B4FF008090CBF346174610FE795
:10384000F7211448FEF74EF9BB68134A002B8ED0BF
:10385000EFE74FF0030C0CFA04F420434FE7E321A9
:103860000C48FEF73FF9FB680B4AC1E7DC21094829
:10387000FEF738F9FB68084AB3E7EA210548FEF786
:1038800031F9FB68044AA5E74FF0040C0CFA04F484
:10389000204334E77CAC00080010014070B50646B8
:1038A0000C46154661B1012D03D805B924043461D5
:1038B00070BD40F2D5110548FEF714F9346170BDB2
:1038C0004FF4EA710148FEF70DF9ECE77CAC000813
:1038D00038B505460C4641B1EB6804EA030224EA18
:1038E000030444EA02442C6138BD4FF4F6710248E7
:1038F000FEF7F8F8F0E700BF7CAC0008704700BFA7
:10390000044A5169014200D1704708B55061FFF780
:10391000F5FF08BD000401402DE9F8430D4681463E
:1039200016461F464FEA1148D9F8002001E07B1CDB
:1039300013D1B8F1010F0BBF5369946925EA030C49
:1039400025EA040C1FFA8CFCBCFA8CFC4FEA5C1CC8
:10395000B445ECD00020BDE8F883FFF703F8089BDE
:10396000C01AB84220D9D9F80030B8F1010F0CBF05
:103970005B699B6925EA03039BB2B3FA83F35B0996
:10398000B342D1D100222023C9F8302089F83D303C
:1039900089F83E20D9F84030012043F0200389F80F
:1039A0003C20C9F84030D6E7002FBDD1DBE700BF8F
:1039B0002DE9F84380460E4617469946046804E010
:1039C00065696A0509D47B1C21D1606926EA00007B
:1039D00080B20028F4D1BDE8F88300226FF4806043
:1039E0002021236843F4007323606061C8F830200D
:1039F00088F83D1088F83E20D8F8403043F00403A2
:103A0000C8F840300023012088F83C30E3E7FEF797
:103A1000A9FFA0EB0900B842D8F8004001D8002F58
:103A2000D3D1636926EA03039BB2002BCDD00023D8
:103A30002022C8F8303088F83D2088F83E30D8F889
:103A400040301343C8F84030DCE700BFF8B50368E6
:103A500017465A69540624D406460D460DE0FEF773
:103A600081FFC01BA842336800D81DB95C6914F0FF
:103A7000400418D05A69520613D45A69D106EED5BB
:103A800000226FF0100020215861326386F83D104B
:103A900086F83E20336C3364002386F83C300120E6
:103AA000F8BD0020F8BD2023346386F83D3086F849
:103AB0003E40336C43F020033364EDE7F8B5054630
:103AC0000E461746046801E0731C1AD1636913F0AF
:103AD000800314D160694205F6D56FF4806120221D
:103AE00061612B6385F83D2085F83E302B6C43F0F7
:103AF00004032B64002385F83C300120F8BD00202E
:103B0000F8BDFEF72FFFC01BB0422C6801D8002E75
:103B1000DCD1636913F08003D8D120222B6385F8B0
:103B20003D2085F83E302B6C13432B64E2E700BF49
:103B3000F8B505460E461746046801E0731C1AD115
:103B4000636913F0040314D160694205F6D56FF47C
:103B50008061202261612B6385F83D2085F83E302D
:103B60002B6C43F004032B64002385F83C300120C8
:103B7000F8BD0020F8BDFEF7F5FEC01BB0422C6872
:103B800001D8002EDCD1636913F00403D8D12022C0
:103B90002B6385F83D2085F83E302B6C13432B6456
:103BA000E2E700BF002800F02C8138B5964A036890
:103BB0000446934208D002F58062934204D040F25A
:103BC000DB119248FDF78EFF6368914A013B9342F7
:103BD00000F2FF80A36833F4804340F0D880E368AC
:103BE000B3F5806F80F0DD80236923F40043B3F5E3
:103BF000804F04D040F2DF118448FDF773FF636902
:103C0000012B00F2D480A36933F0FE0340F0D98089
:103C1000E36933F0400304D04FF4F1717B48FDF7C2
:103C200061FF236A33F0800340F09F8094F83D30B9
:103C300003F0FF02002B00F0A4802422236884F804
:103C40003D201A6822F001021A601A6842F400420C
:103C50001A601A6822F400421A6000F057FF636885
:103C60006C4A93424FD86C4A904240F2B0806B4D00
:103C70005A00A5FB0035431EB3FBF2F340F6FC7C73
:103C80002268A90C5068013120F03F0040EA9540BD
:103C90005060106A013320F03F0001431162D16986
:103CA00013EA0C0F21F44F4121F0FF0140F09780FF
:103CB00004230B43D3611168D4E9073021F0C0011C
:103CC00003430B4313609168D4E9030321F40341D8
:103CD000034321F0FF010B439360D068D4E9053121
:103CE00020F0FF000B430343D3601368002143F02F
:103CF000010313602023216484F83D30216384F89C
:103D00003E10084638BD464A904260D9434A454D68
:103D1000A2FB002C4FF496724FEA9C4102FB01F18A
:103D20002268A5FB01515568890925F03F0545EA40
:103D30009C455560156A013125F03F052943116204
:103D4000D169A56821F44F41013821F0FF01002D10
:103D500048D103EB4303B0FBF3F30133C3F30B038D
:103D6000002B4CD043F40043A3E740F2E311274873
:103D7000FDF7B8FE94F83D3003F0FF02002B7FF40E
:103D80005CAF204684F83C20FDF756F955E740F239
:103D9000DD111E48FDF7A6FEE368B3F5806FFFF462
:103DA00023AF4FF4EF711948FDF79CFE1CE74FF469
:103DB000F0711648FDF796FEA36933F0FE033FF459
:103DC00027AF40F2E1111148FDF78CFE20E70120FA
:103DD00038BD4FF4EE710D48FDF784FEFAE6C3F3EB
:103DE0000B0366E703EB830303EB8303B0FBF3F3FF
:103DF0000133C3F30B0313B143F4404359E70123E9
:103E000057E70120704700BF00540040B8AC0008DD
:103E10007F1A0600A08601007F841E0083DE1B43FC
:103E2000FF083D00D34D62102DE9F047044684B0F1
:103E300098460F4691460C9EFEF794FD94F83D304F
:103E4000202B04D00227384604B0BDE8F087054691
:103E500000901923012220466749FFF75DFD0028E5
:103E6000F0D194F83C30012BECD0012384F83C30A5
:103E700023681A68D20740F1938000214FF0210C8B
:103E800010201A6822F400621A6084F83DC084F899
:103E90003E002164A4F82A80628DA1F58031E162A0
:103EA0002285E26AC4F82490082A06D0012A04D0A8
:103EB0008A4202D0226B122A03D11A6842F480721D
:103EC0001A60334600224FF0011120460095FFF79B
:103ED00023FD002840F0828023692268B3F5804FDB
:103EE00063D107F0FE0717612B463246204643494F
:103EF000FFF75EFD074600286BD1236803905A69DF
:103F000003929B690393039B3AE02A46314620467D
:103F1000FFF7D4FD002859D1D4F82480D4F800E06C
:103F2000C4461CF801ABB4F82890CEF810A0C4F831
:103F300024C0B4F82AC009F1FF330CF1FF3C1FFA8A
:103F40008CFCA4F82AC0DEF814C09BB21CF0040F4D
:103F50002A463146204623850FD073B198F80130A8
:103F6000A9F10209CEF8103008F102036362638DF3
:103F7000A4F82890013B9BB26385FFF7D9FD28BBCD
:103F8000238D002BC1D121680A6842F400720A60B7
:103F9000202284F83C3084F83D2084F83E3052E7FB
:103FA0001A6842F001021A6067E7FB1103F006038A
:103FB00043F0F003136120462B4632461049FFF7C9
:103FC000F7FC30B92368FFB21F618DE7236C042B27
:103FD0000CD00127384604B0BDE8F08723681B6881
:103FE000DB05F6D54FF400732364F2E7226813680B
:103FF00043F400731360ECE70200100002000100BC
:10400000080001002DE9F047002488B0029404461E
:1040100098460F469146109DFEF7A4FC94F83D305B
:10402000202B04D00227384608B0BDE8F0870646AA
:1040300000901923012220469C49FFF76DFC0028BF
:10404000F0D194F83C30012BECD00123206884F8A7
:104050003C300368DA0777D500224FF0220C10219C
:10406000036823F40063036084F83DC084F83E10C5
:104070002264A4F82A80638DA2F58032E262E26AAB
:1040800023850368082A43F48063C4F824900360FE
:1040900007D0012A05D012F5803F02D0236B112BE7
:1040A00006D1036843F48073036001E06B1C2AD1DE
:1040B0004369DB07FAD52369B3F5804F49D147F04F
:1040C0000107FFB2076133462A4620467849FFF7C9
:1040D0006FFC0746002832D1218D2368002971D159
:1040E00003905A6903929A690392039A1A6842F4F8
:1040F00000721A600023202284F83C3084F83D20AE
:1041000084F83E308FE7FEF72DFC801B8542206847
:1041100054D24369D907CBD400222023226384F8E8
:104120003D3084F83E20236C84F83C2043F020038B
:1041300023640368DA0502D54FF400732364012772
:10414000384608B0BDE8F087036843F00103036018
:1041500082E74FEAE71808F0060848F0F003036129
:104160002A46334620465349FFF722FC0028E6D171
:104170002368FFB22A461F61204633464C49FFF7A9
:1041800017FC02460028DAD12168079048692B46BF
:104190000790886907900798086840F48070086065
:1041A0004FF0011120460096FFF7B6FB002840F0C3
:1041B0000181226848F0F103136184E7002D7FF448
:1041C00077AFA6E701291A6800F0DF80022979D0CD
:1041D00042F480621A6006905A6906929B690693BF
:1041E000069B0329DFF8D080DFF8D0A0DFF8D0905D
:1041F00036D8012900F0B98002292B464FF0000281
:1042000041462046009672D1FFF786FB002896D1E2
:1042100072B62368616A1A6842F400721A601B69F8
:104220000B70638D013B9BB26385636A01336362EC
:10423000238D013B238562B623681A69636A1A706D
:10424000638D218D013B9BB26385636A013989B21D
:1042500001332185636200293FF44CAF0329C8D99B
:10426000324629462046FFF7F1FB00287FF467AF6E
:1042700023681A69636A1A70638D218D013B9BB2B2
:1042800063852368626A5869013989B202F1010CB9
:1042900040072185C4F824C0DDD5032903D119685E
:1042A00021F4806119601B695370C9E70200100096
:1042B00002000100080001000400010000000020CD
:1042C00089B5F81442F400621A6072B6236805904A
:1042D0005A6905929A690592059A1A6822F48062D1
:1042E0001A6062B6218D00297FF47BAF02E7FFF7E9
:1042F00013FB00287FF423AF2268136823F4806344
:10430000136072B623681A69636A1A70DAF80030AB
:10431000616ADB08A9FB0323628D1B0A03EB83039D
:10432000013AC3EBC30392B262850293238D013B32
:1043300023854B1C636203E023685A6952071DD42E
:10434000029B013B0293029B002BF5D120222363A9
:1043500084F83D2084F83E30226C42F02002226432
:1043600062B6012784F83C30EAE632462946204608
:10437000FFF76CFB00283FF45FAFE0E61A6842F4F9
:1043800000721A601B694B704BE722F480621A605E
:1043900072B6236804905A6904929A690492049A46
:1043A0001A6842F400721A6062B6218D00297FF407
:1043B00018AF9FE623681B68D9057FF5C0AEBBE642
:1043C000002800F06B822DE9F0410368044682B0BA
:1043D000002B48D01E0700F0C781DD0740F1B280F6
:1043E000636833F4803203D0B3F5A02F40F0988196
:1043F000A24A536803F00C03042B00F09A80536820
:1044000003F00C03082B00F090806368B3F5803F45
:1044100000F07381002B00F0AE81B3F5A02F00F007
:104420000582964B1A6822F480321A601A6822F4C8
:1044300080221A6066E1914A136A43F00103136215
:10444000FEF790FA41F2883806468C4F05E0FEF7F9
:1044500089FA801B404500F283813B6A9B07F6D5B1
:10446000002D40F0DD81E369022B00F23C81002B3E
:1044700057D0824D6A6802F00C02082A00F0BF8112
:10448000022B40F0E881236A33F4803304D040F2F9
:10449000B6217B48FDF726FB636A33F4402212D035
:1044A000B2F5801F0FD0B2F5001F0CD023F480228C
:1044B000B2F5401F07D0B3F5601F04D040F2B7211A
:1044C0006F48FDF70FFB00226E4B6C4E1A66FEF72D
:1044D00049FA054605E0FEF745FA401B022800F2BE
:1044E0003F8133689901F6D4226AB2F5803F00F02B
:1044F000C3810120614D616A6B6823F474130B431F
:10450000604913436B600866FEF72CFA044605E029
:10451000FEF728FA001B022800F222812B689A017C
:10452000F6D5002002B0BDE8F0815368D8037FF5CE
:104530006CAF524B1B68990303D56368002B00F0E6
:104540009A8023689F072FD52369012B00F2A28050
:1045500063691F2B00F2A780484B5A6812F00C0FBA
:1045600000F082805A6802F00C02082A79D0236990
:10457000002B00F033810122424B404E1A60FEF7BF
:10458000F1F9054605E0FEF7EDF9401B022800F2BF
:10459000E78033689807F6D53368626923F0F8033B
:1045A00043EAC203336023681A0725D5A369012BA8
:1045B00000F29080002B7CD00122324B2F4EC3F8AA
:1045C0008024FEF7CFF9054605E0FEF7CBF9401B46
:1045D000022800F2C580736A9B07F6D52A4B2B4A46
:1045E0001B68A2FB03235B0A019300BF019B5A1EB9
:1045F0000192002BF9D123685D077FF534AFE368A2
:10460000012B06D9052B04D040F20F211C48FDF7E1
:1046100069FA1A4BDA69D00000F1C3800125DA6922
:1046200042F08052DA61DB6903F080530093009B13
:10463000174E3368D90540F18380E368012B3FF4BE
:10464000FAAE002B00F0AF80052B0C4B1A6A00F07D
:10465000FA8022F001021A621A6A22F004021A6237
:10466000EEE65B68DE0382D4044B1B689D075DD5D4
:104670002369012B5AD0012054E700BF00100240EB
:10468000F0AC00080000424200000020D34D621050
:104690000070004040F29F118148FDF723FA6369E2
:1046A0001F2B7FF659AF4FF4D0717D48FDF71AFAF2
:1046B00052E77C4A7C4EC2F88034FEF753F9054637
:1046C00004E0FEF74FF9401B022849D8736A9F07A0
:1046D000F7D490E74FF4F0717148FDF703FAA3693E
:1046E000002BE6D068E740F2AD216D48FDF7FAF9FE
:1046F000E369002B7FF4BDAE13E76B4A136843F404
:1047000080331360FEF72EF9674E054604E0FEF78E
:1047100029F9401B642823D833689A03F7D510E79A
:1047200040F26B115E48FDF7DDF961E65E4A6169B2
:10473000136823F0F80343EAC1031360236833E7E7
:10474000336843F480733360FEF70CF9074633682F
:10475000DA053FF572AFFEF705F9C01B6428F6D9FC
:10476000032002B0BDE8F08140F265114C48FDF72E
:10477000B9F9236831E64C4D2B6823F480332B6064
:104780002B6823F480232B60FEF7ECF8064604E048
:10479000FEF7E8F8801B6428E2D82B689B03F7D467
:1047A000CFE6002544E7404E41F28838336A23F0D3
:1047B00001033362336A23F004033362FEF7D2F855
:1047C000074604E0FEF7CEF8C01B4045C8D8336A60
:1047D0009807F7D4002D3FF446AE21E0314A324E1F
:1047E0001360FEF7BFF8054604E0FEF7BBF8401B78
:1047F0000228B5D833689907F7D42368D4E6012B8B
:104800003FF439AF6B68226A03F4803191427FF440
:1048100032AF606A03F47013181A18BF012081E6E2
:10482000214AD36923F08053D3611CE603F180430E
:10483000A3F53C331A6842F480221A601A6842F4E5
:1048400080321A605EE742F004021A621A6A42F08D
:1048500001021A62F4E50022124B1A66FEF782F892
:10486000044605E0FEF77EF8001B02283FF678AF0D
:104870002B689B01F6D454E6A16831F4003306D0CE
:1048800040F2CD210648FDF72DF9A168226A0648BD
:10489000436823F400330B4343602AE6012070474A
:1048A000F0AC000800004242001002400E4A53687B
:1048B00003F00C01082901D00C4870470C48C3F3E1
:1048C0008341DB03405C0AD50849536801FB00F0D3
:1048D000084AC3F34043D35CB0FBF3F07047064B88
:1048E00003FB00F0704700BF0010024000127A0086
:1048F0002CAD000828AD000800093D00002800F09C
:10490000EA8003682DE9F0411E0704460D4600F0D9
:10491000CB80022D00F2C280764A136803F00703B1
:10492000AB420CD2136823F007032B4313601368C8
:1049300003F00703AB4202D00120BDE8F0812368F9
:10494000980728D5590704D56B494A6842F4E062B4
:104950004A601A0704D568494A6842F460524A60BE
:10496000A26892B1C02A10D000F2AC80A02A0CD06C
:1049700000F2A48022F01001802906D040F25D31BF
:104980005E48FDF7AFF8A26823685B48416821F0F4
:10499000F0010A434260DF0726D56368022B00F26C
:1049A000A080554A012B126800F09780022B00F07E
:1049B00081809107C0D5504E41F28838726822F04C
:1049C000030213437360FDF7CDFF074605E0FDF7D3
:1049D000C9FFC01B404500F28B807368626803F01A
:1049E0000C03B3EB820FF2D1424A136803F00703C2
:1049F000AB4209D9136823F007032B4313601368F4
:104A000003F00703AB4297D123685A0718D5E16832
:104A100031F480620ED021F40072B2F5A06F09D09B
:104A2000B1F5C06F06D040F2A2313448FDF75AF814
:104A3000E16823683048426822F4E0620A43426039
:104A40001B0718D5226932F480630DD022F400735D
:104A5000B3F5A06F08D0B2F5C06F05D040F2A93110
:104A60002648FDF73FF8226923494B6823F4605339
:104A700043EAC2034B60FFF719FF03461E4A204971
:104A800052682048C2F30312895C1F4ACB40006879
:104A90001360FDF7D3FC0020BDE8F08140F2373110
:104AA0001648FDF71FF837E740F236311348FDF797
:104AB00019F82EE790013FF57EAF3DE7B02A3FF4AD
:104AC00064AF5BE7E02A3FF460AF22F02001D02919
:104AD0007FF454AF59E70120704796033FF56BAF61
:104AE0002AE74FF459710548FCF7FCFF636858E763
:104AF000032022E70020024000100240F0AC000832
:104B0000C0AB00080800002000000020044B054A4C
:104B10005B680549C3F30223CB5C1068D84070473B
:104B20000010024000000020B8AB0008044B054A0A
:104B30005B680549C3F3C223CB5C1068D84070475B
:104B40000010024000000020B8AB000838B5044651
:104B50000D46D0B105B30F22124B22605A6812499C
:104B600002F0030262605A6802F0F002A2605A6822
:104B700002F4E062E2605B68DB0803F4E063236157
:104B80000B6803F007032B6038BD40F22151074842
:104B9000FCF7A8FF002DDED140F222510348FCF7BC
:104BA000A1FFD8E70010024000200240F0AC00084E
:104BB0002DE9F04103680446DD0682B063D0D807D2
:104BC00039D5636833F440737BD1474BDA69D10040
:104BD0005FD4DA69454D42F08052DA61DB69012623
:104BE00003F080530193019B2B68DA0556D53E4DA7
:104BF00061682B6A13F4407311D001F440729A4239
:104C00000DD0002001272B6A394A23F44071C2F8E5
:104C10004074C2F84004D807296257D46168324A08
:104C2000136A23F440730B4313621EB1D36923F05C
:104C30008053D36123689A070FD5A16831F44042AD
:104C400005D0B7212B48FCF74DFFA1682368264803
:104C5000426822F440420A434260DB060FD5626993
:104C600032F4800305D040F213112248FCF73AFFDA
:104C700062691D494B6823F4800313434B60002095
:104C800002B0BDE8F0816A211A48FCF72BFF2368C7
:104C900095E7164D00262B68DA05A8D42B6843F457
:104CA00080732B60FDF75EFE07462B68DB059ED404
:104CB000FDF758FEC01B6428F7D9032002B0BDE8F9
:104CC000F08172210B48FCF70DFF7EE7FDF74AFEED
:104CD00041F2883807462B6A99079FD4FDF742FEB8
:104CE000C01B4045F7D9E8E70010024000700040C3
:104CF000000042423CAD00082DE9F0411E4614463A
:104D000082B00D460746FDF72DFE2644361AFDF704
:104D100029FE8046244B1B68C3F3CB3306FB03F309
:104D200001933A6801E0631C07D1936835EA0303F5
:104D3000F9D0002002B0BDE8F081FDF713FEA0EB32
:104D40000800B04207D2019B002B019B08BF002640
:104D5000013B0193E5E7D7E900315A68B1F5827F5D
:104D600022F0E0025A6013D0BA6AB2F5005F07D1B0
:104D70001A6822F400521A601A6842F400521A604B
:104D800001220023032087F8512087F85030D1E713
:104D9000BA68B2F5004F02D0B2F5806FE4D11A685C
:104DA00022F040021A60DFE700000020002800F037
:104DB0000481F8B5914A0368044693420CD0A2F5E9
:104DC0007842934208D002F58062934204D04FF4B7
:104DD000AB718B48FCF786FE63683BB1B3F5827F0D
:104DE00004D040F257118648FCF77CFEA36833F4E8
:104DF000806240F08280E36833F4006304D040F2C4
:104E000059117F48FCF76EFEA36933F4007203D09A
:104E1000B3F5802F40F0C780E36983B1182B40F2CF
:104E2000A980203B182B05D84FF0013222FA03F35A
:104E3000DE0704D440F25B117148FCF753FE236A8D
:104E400033F0800363D1636A002B68D1236933F0A8
:104E5000020340F0A2806369012B04D940F2631180
:104E60006748FCF73FFE6368B3F5827F00F0A780D8
:104E70000023E361002094F85130A06203F0FF02A8
:104E8000002B00F08180D4E9013202264FF0010CA2
:104E9000002502F4044203F482731343E26884F8A9
:104EA0005160266902F40062134306F002063343A0
:104EB0006669A169276A06EA0C063343E66907F0CA
:104EC000800E01F4007706F038063B432268334336
:104ED00043EA0E0303431068090C01F0040120F0BB
:104EE0004000106013605160D369284623F40063CA
:104EF000D361656584F851C0F8BDB3F5004F3FF448
:104F00007AAF4FF4AC713E48FCF7ECFD73E74FF419
:104F1000AE713B48FCF7E6FD636A002B96D040F289
:104F20005F113748FCF7DEFD636A002B8ED0E36922
:104F30007BB1182B11D9203B182B05D84FF001322B
:104F400022FA03F3DA0704D440F271112C48FCF77B
:104F5000C9FD0023236163618CE7072BF4D9294A3B
:104F600022FA03F3DB07F4D440F271112448FCF772
:104F7000B9FDEEE7072B7FF65DAF224A22FA03F375
:104F8000DD077FF557AF5AE7204684F85020FDF73C
:104F90009DF9A06A00F4005075E74FF4B17118480C
:104FA000FCF7A0FD57E74FF4AD711548FCF79AFDEB
:104FB000E369002B3FF443AF30E701207047E3691A
:104FC000002B3FF457AF182B0FD9203B182B06D8D6
:104FD0004FF0013222FA03F3D8073FF54BAF40F20E
:104FE00067110748FCF77EFD44E7072BF7D9054A10
:104FF00022FA03F3D907F2D53CE700BF00300140A5
:1050000078AD0008000101012DE9F0431D468368D9
:10501000044633F400438846914683B004D04FF4ED
:1050200048716548FCF75EFD94F85030012B60D064
:10503000012384F85030FDF795FC94F85130064672
:10504000012BDFB207D002270023384684F8503006
:1050500003B0BDE8F083B8F1000FF5D0B9F1000F4F
:10506000F2D00322002384F85120A2686365B2F5D0
:10507000004FA363A387A4F836902364E387636497
:10508000C4F830802368A4F834905ED01A685206C1
:1050900003D41A6842F040021A60E2686168B2F50F
:1050A000006F2BD0002959D0B9F1010F56D0E38EF3
:1050B0009BB273B95DE0226B12781A73E18E236B99
:1050C0000139013389B22363E186E18E89B2002977
:1050D0004FD023689A689207EDD4FDF743FC801BFC
:1050E000A842F2D36B1CF0D00123032784F851307F
:1050F000AAE70227384603B0BDE8F083002956D15D
:10510000424632F8021BD9602263E28E013A92B223
:10511000E286E28E92B26AB92BE0226B32F8021B71
:10512000D960E38E2263013B9BB2E386E38E9BB2A0
:10513000FBB123689A689007EFD4FDF713FC801B3E
:10514000A842F3D3691CF1D0CEE71A6822F04002DE
:105150001A601A6842F480421A6097E798F80020B3
:105160001A73236B01332363E38E013B9BB2E38607
:105170009DE733462A4680212046FFF7BDFD20B13A
:105180002022636D134363656265A36833B92268A7
:105190000193D368019393680193019B636D002B86
:1051A0007FF452AF01221F4684F851204CE7B9F139
:1051B000010FAED1A4E700BF78AD0008836C70B5D5
:1051C00004460E461546002B61D0A36833F4004315
:1051D00004D040F2A5613248FCF784FC94F85030CA
:1051E000012B5AD0012294F8513084F85020934278
:1051F00039D1002E40D0002D3ED000230320A168DD
:1052000084F85100B1F5004F63652268E586266396
:10521000A586A36323646364A387E3872ED0002558
:10522000A06C204B3146C3621F4B0C3283621F4B74
:105230000363E38E45639BB2FDF7EEFEC0B92368BE
:105240001A68520603D41A6842F040021A605A687B
:1052500042F020025A605A6842F002025A6000236B
:1052600084F8503070BD0220002384F8503070BDA7
:10527000636D43F0100363650120F5E7136823F0C5
:1052800040031360136843F480431360C7E740F2A0
:10529000A2610348FCF726FC97E7022070BD00BF1F
:1052A00078AD0008B5520008E9520008C552000860
:1052B000704700BF08B5406AFFF7FAFF08BD00BF9E
:1052C000704700BF0121406A08B50268536823F0A7
:1052D00003035360436D43F01003436580F851109E
:1052E000FFF7EEFF08BD00BF30B5054683B0446A46
:1052F000FDF738FB2B681A6893061FD42168034614
:105300004868642220F020004860486820F00200CD
:10531000486080212046FFF7EFFCA0B9A36833B9AD
:1053200022680193D368019393680193019B012341
:105330000022E28684F85130636D83B92046FBF782
:10534000B1FF03B030BD636D43F020036365636D4F
:1053500043F020036365A368002BE8D1E0E7204613
:10536000FFF7AEFF03B030BD026810B55168936817
:10537000044603F0410CBCF1010F84B04FD09807F4
:1053800001D5080653D413F0600F46D0880644D5E3
:1053900058060ED594F85100032852D0606D40F0A5
:1053A0000400606500200190D06801909068019031
:1053B000019898060CD50020636D43F001036365E6
:1053C000039093680393136823F040031360039BD7
:1053D000636D13B30120536823F0E00353608B0720
:1053E00084F8510029D05368E06C23F00303536024
:1053F00040B1184B4363FDF787FE18B1636D43F06E
:1054000040036365A06C40B1124B4363FDF77CFE23
:1054100018B1636D43F04003636504B010BD11F033
:10542000400FACD0036C04B0BDE8104018472046D4
:10543000636C04B0BDE8104018472046FFF740FFFA
:10544000EBE700230293D368029393680293029BD5
:10545000E3E700BF5954000808B50023406AC3873A
:10546000C386FFF72DFF08BD704700BF294A0368B8
:1054700010B5934204461FD002F5006293421BD040
:10548000B3F1804F18D0A2F59832934214D002F5B0
:105490008062934210D002F5806293420CD002F5F4
:1054A0008062934208D002F58062934204D04FF4A8
:1054B000E8711948FCF716FB94F83D30012B27D111
:1054C0000222236884F83D20DA68124942F0010282
:1054D0008B42DA6011D0114A93420ED0B3F1804F63
:1054E0000BD0A2F59832934207D002F58062934226
:1054F00003D002F58062934204D19A6802F0070259
:10550000062A03D01A6842F001021A60002010BD7A
:10551000012010BD002C0140B0AD00080034014056
:10552000704700BF704700BF704700BF704700BFA3
:10553000036810B51A690446910702D5DA68920724
:105540005FD41A69500702D5DA68510746D41A6940
:10555000120702D5DA6810072ED41A69D20602D5CE
:10556000DA68D00618D41A69D10702D5DA68D207EA
:105570005DD41A69100602D5DA6811065FD41A697B
:10558000520602D5DA68500661D41A69910602D52E
:10559000DA68920643D410BD6FF010010822196139
:1055A0002277DB69204613F4407F64D0FFF7BAFF0F
:1055B000002223682277D6E76FF0080104221961E0
:1055C0002277DB692046990752D1FFF7A9FF2046D1
:1055D000FFF7AAFF002223682277BEE76FF00401DD
:1055E0000222196122779B69204613F4407F3CD147
:1055F000FFF796FF2046FFF797FF002223682277E8
:10560000A5E76FF002010122196102779B699B07F0
:1056100025D0FFF787FF00222368227791E76FF0FC
:1056200020022046BDE810401A6100F019B96FF061
:10563000010220461A61FCF749FA236899E76FF0E6
:10564000800220461A6100F00DF9236897E76FF099
:10565000400220461A61FFF769FF236895E7FFF7CC
:105660005FFF2046FFF760FFD5E7FFF75BFFC4E76A
:10567000FFF758FFAEE7FFF753FF2046FFF754FF51
:1056800096E700BF284A10B4904203681FD002F585
:10569000006290421BD0B0F1804F2FD0A2F598321B
:1056A00090422BD002F58062904227D002F58062B2
:1056B000904223D08C680A68496923F080030B4329
:1056C00003600123C462826210BC436170474C686E
:1056D00023F07003CA68234323F4407313434A69D9
:1056E00023F08003134303608B6810BCC3620B6814
:1056F00083620B6903630123436170474A6823F0A7
:105700007003CC68134323F440734A69234323F0A6
:10571000800313438C680A6803600123C4628262B9
:1057200010BC4361704700BF002C0140002800F00E
:1057300090800368484A10B5934204461FD002F592
:10574000006293421BD0B3F1804F18D0A2F598327B
:10575000934214D002F58062934210D002F5806229
:1057600093420CD002F58062934208D002F5806229
:10577000934204D040F213113848FCF7B3F9A36800
:1057800033F010020AD023F04002202A06D0402B2A
:1057900004D04FF48A713148FCF7A4F9236933F43B
:1057A00080722ED14FF6FE72E368013B934236D8E9
:1057B000A36933F080033BD194F83D3003F0FF023E
:1057C000002B40D00223214684F83D3051F8040BD1
:1057D000FFF758FF012384F8463084F83E3084F800
:1057E0003F3084F8403084F8413084F8423084F807
:1057F000433084F8443084F8453084F83D3000204C
:1058000010BDB3F5007FCDD040F215111348FCF761
:1058100069F94FF6FE72E368013B9342C8D94FF431
:105820008B710E48FCF75EF9A36933F08003C3D097
:1058300040F217110948FCF755F994F83D3003F090
:10584000FF02002BBED1204684F83C20FFF70CFE5F
:10585000B8E70120704700BF002C0140B0AD000840
:10586000704700BF704700BF026802F10C0353E8A5
:10587000003F23F4907302F10C0C4CE80031002936
:10588000F3D102F1140353E8003F23F0010302F1C6
:10589000140C4CE800310029F3D1036B012B05D027
:1058A0002022002380F842200363704702F10C039A
:1058B00053E8003F23F0100302F10C0C4CE80031D8
:1058C0000029F3D1ECE700BF38B54268344B0446F9
:1058D0009A4255D8E36833F4005304D040F6676128
:1058E0003048FCF7FFF8236933F4806202D0B3F547
:1058F000C06F4FD14FF6F3736069184239D1002859
:1059000037D02368E1681A69256922F440520A43B6
:105910001A61D968A26821F4B05121F00C012A4320
:105920000A430243DA605A69A0691F4922F44072AF
:1059300002438B425A6129D0FFF7E8F803466268B8
:1059400003EB8303920003EB8303B3FBF2F34FF00B
:10595000640C16492068A1FB034252090CFB123368
:105960001B013233A1FB0313120102EB53128260BD
:1059700038BD0C4840F66961FCF7B4F86069C0E7CF
:1059800040F666610748FCF7ADF8A3E7FFF7CEF8ED
:105990000346D4E740F668610248FCF7A3F8A9E79C
:1059A00020AA4400E8AD0008003801401F85EB51F3
:1059B0002DE9F84380460F4691461E46D8F8005020
:1059C00001E0731C06D12C6837EA0404F9D10020E9
:1059D000BDE8F8833EB1FCF7C5FFA0EB09008642A5
:1059E000ECD2D8F8005005F10C0353E8003F23F443
:1059F000D07305F10C0141E80032002AF3D105F122
:105A0000140353E8003F23F0010305F1140141E8BA
:105A10000032002AF3D12023032088F8413088F88F
:105A2000402088F84230D3E7002877D0826910B54B
:105A300003680446002A44D039498B425AD0A1F564
:105A400074418B4256D001F580618B4252D04FF4A5
:105A5000B7713448FCF746F8A269002A4AD1A36816
:105A600033F4805304D040F275112E48FCF73AF815
:105A700094F8413003F0FF02002B49D02423226820
:105A800084F84130D368204623F40053D360FFF7F5
:105A90001BFF00224FF0200C23681046196921F4E7
:105AA00090411961596921F02A015961D96841F47D
:105AB0000051D960626484F841C084F842C06263D6
:105AC00010BD174A9342CAD0A2F574429342C6D081
:105AD00002F580629342C2D002F580629342BED04A
